:100000000C94E9000C942A0D0C94510D0C941101E0
:100010000C9411010C9411010C9411010C94110118
:100020000C9411010C9411010C9411010C944F08C3
:100030000C9411010C9411010C9411010C941101F8
:100040000C94790D0C9411010C9478100C94AA1056
:100050000C9411010C9411010C9411010C941101D8
:100060000C9411010C9411010000010008004000E3
:1000700000010004050D000000080002010000035B
:100080000407000000000000000001020408102026
:10009000408001020408102001020408102004041A
:1000A0000404040404040202020202020303030320
:1000B00003030000000023002600290000000000C8
:1000C000250028002B0000000000240027002A0043
:1000D00000407A10F35A00A0724E18090010A5D4FF
:1000E000E80000E87648170000E40B54020000CA5C
:1000F0009A3B000000E1F5050000809698000000A2
:1001000040420F000000A086010000001027000000
:100110000000E803000000006400000000000A0086
:10012000000000000100000000002C76D888DC6789
:100130004F0823DFC1DFAE59E1B1B796E5E3E453E1
:10014000C63AE651997696E8E6C28426EB898C9BFE
:1001500062ED407C6FFCEFBC9C9F40F2BAA56FA59E
:10016000F490055A2AF75C936B6CF9676DC11BFC20
:10017000E0E40D47FEF520E6B500D0ED902E03003B
:10018000943577050080841E080000204E0A000088
:1001900000C80C333333330F986E12831141EF8D47
:1001A0002114893BE65516CFFEE6DB18D1844B3887
:1001B0001BF77C1D901DA4BBE424203284725E22B8
:1001C0008100C9F124ECA1E53D2713010804DA10F0
:1001D0002F0111241FBECFEFD8E0DEBFCDBF12E04C
:1001E000A0E0B1E0E0E3F8E302C005900D92A6358F
:1001F000B107D9F724E0A6E5B2E001C01D92A03214
:10020000B207E1F711E0C0EDD1E004C02297FE0192
:100210000E943B17CA3CD107C9F70E9492140C9464
:100220000B1C0C940000EF920F9326E04BE062E071
:1002300088E593E00E94E50866E171E082E593E0DD
:100240000E948E13E12C0AE02CE04CE064EF71E098
:1002500086E592E00E944A040F91EF90089582E5AE
:1002600093E00C94201326E040E052EC61E070E053
:100270008FE793E00E94161086E592E00E947708CF
:10028000811106C06EE171E08FE793E00E94881152
:1002900088E593E00C940609CF92DF92EF92FF92EB
:1002A0000F931F93CF93DF93CDB7DEB72C970FB685
:1002B000F894DEBF0FBECDBF7C018B01CDB6DEB69C
:1002C00067E371E0CE0101960E948E1362E573E050
:1002D000CE0101960E9438146AE371E00E944B142B
:1002E000B7010E9438146CE371E00E944B14B8010E
:1002F0000E943814BC01CE0107960E94BB13CE01A8
:1003000001960E9420136EE371E0CE0101960E94D7
:100310008E13BE01695F7F4FCE0101960E94381493
:10032000BC018FE793E00E947611CE0101960E94F6
:1003300020130B851C858DB79EB7801B910B0FB6C4
:10034000F8949EBF0FBE8DBF01967C0120E030E087
:10035000A801BC01CE0107960E94651461E08DE002
:100360000E94D40E402FB70186E592E00E94A905B5
:10037000E0915602F09157020484F585E02D86E560
:1003800092E0099560E08DE00E94D40E68EC70E088
:1003900080E090E00E94F20DCE0107960E942013AB
:1003A0000FB6F894DEBE0FBECDBE2C960FB6F894F5
:1003B000DEBF0FBECDBFDF91CF911F910F91FF9098
:1003C000EF90DF90CF9008954F925F926F927F925F
:1003D0008F929F92AF92BF92EF920F931F93CF9302
:1003E000DF93CDB7DEB72C970FB6F894DEBF0FBE04
:1003F000CDBF60ED77E080E090E00E94F20D60E01C
:1004000088E593E00E94E30C2B013C0140E060E0B2
:1004100088E593E00E94830C4B015C01A3019201EB
:10042000C301B2010E940C17811178C0A50194018B
:10043000C501B4010E940C17811170C0E12C930119
:100440008201B501A40188E593E00E94180922E029
:10045000B501A401CE0107960E94DC1369E471E0A6
:10046000CE0101960E948E13BE01695F7F4FCE01BF
:1004700001960E944C01CE0101960E942013CE01EC
:1004800007960E94201322E0B301A201CE01079635
:100490000E94DC1365E571E0CE0101960E948E1387
:1004A000BE01695F7F4FCE0101960E944C01CE01D3
:1004B00001960E942013CE0107960E9420136EE53C
:1004C00071E08FE793E00E94691122E030E0B30110
:1004D000A2018FE793E00E941E1369E671E08FE7A7
:1004E00093E00E9469116DE671E08FE793E00E944E
:1004F000691122E030E0B501A4018FE793E00E948A
:100500001E136BE771E08FE793E00E94691165E4C9
:1005100072E08FE793E00E94691106C060E871E025
:100520008FE793E00E9488112C960FB6F894DEBFF7
:100530000FBECDBFDF91CF911F910F91EF90BF9074
:10054000AF909F908F907F906F905F904F900895A5
:10055000682780E1689F90011124622770E0362FA0
:100560002227492F50E0242B352BCB01F4E0959521
:100570008795FA95E1F728273927CB01A3E0880F63
:10058000991FAA95E1F782279327089581E008959E
:10059000FC0165830895FC0164830895FC01628772
:1005A0000895FC0163870895FC01648708954095D0
:1005B000FC0125854223462B45870895FC01868151
:1005C0000895FC0187810895FC0180850895FC0150
:1005D0008185089580E00895CF93DF93EC01E88151
:1005E000F9810280F381E02DCE010995811103C0CC
:1005F0000E94780DF4CFDF91CF910895CF93DF93D0
:10060000EC018A819B81039719F40E94780DF9CF40
:1006100081E0DF91CF9108958F929F92AF92BF9228
:10062000CF92DF92EF92FF92CF93DF93EC016B01B9
:100630000E94C30D4B015C01E12CF12C0E94C30D03
:10064000681979098A099B096C157D058E059F0536
:1006500060F4E881F9810280F381E02DCE010995F3
:10066000811105C00E94780DE9CF80E001C081E0D2
:10067000DF91CF91FF90EF90DF90CF90BF90AF9040
:100680009F908F9008958F929F92AF92BF92CF923A
:10069000DF92EF92FF92CF93DF93EC016B010E9408
:1006A000C30D4B015C01E12CF12C0E94C30D6819B4
:1006B00079098A099B096C157D058E059F0538F41B
:1006C0008A819B81039729F40E94780DEECF80E008
:1006D00001C081E0DF91CF91FF90EF90DF90CF904C
:1006E000BF90AF909F908F900895FC0184EA91E0B5
:1006F00091838083138212828FEF84838287838722
:1007000014861586108A1786128A118A148A138A0B
:10071000089508950895FC01758364830895FC018C
:10072000778366830895FC01738362830895FC01D7
:1007300080ED91E09183808373836283558344834A
:100740003783268308956EBD00000DB407FEFDCFEC
:100750008EB508958CB580688CBD08958CB58F7763
:100760008CBD08950C94D1082CB5982F93702C7FD4
:10077000922B9CBD9DB582FB882780F99E7F982B8C
:100780009DBD0895CF93FC01268137812115310548
:1007900079F02130310541F02230310539F0233034
:1007A000310531F49CE005C094E003C098E001C03D
:1007B00090E08CB5837F892B8CBD848195810197D6
:1007C00019F48CB5806202C08CB58F7D8CBD82819E
:1007D000938101978430910528F4FC01E052FE4F8B
:1007E000C08101C0C1E08C2F0E94B4030E949B080D
:1007F0008C2FCF910C94B403CF93DF93EC010E9424
:10080000970388EE91E099838883DF91CF910895D3
:1008100020E030E040E050E060E070E08AE693E005
:100820000C94FC038CE30895DF92EF92FF920F93F8
:100830001F93CF93DF93EC017B018A01E881F9815B
:100840000280F381E02D0995D82E8823D1F0E114A0
:10085000F104B1F00115110599F0FE01E759FF4FC0
:1008600090819750F8018081981708F49083F801DF
:10087000408150E0BE01665D7F4FC7010E945F1955
:100880001D8E8D2DDF91CF911F910F91FF90EF90D5
:10089000DF900895AF92BF92CF92DF92EF920F93C5
:1008A000CF93DF93CDB7DEB72A970FB6F894DEBFAC
:1008B0000FBECDBF6C015B012A8749870E9475037B
:1008C0008CEF91E0F60191838083B68AA58A4985F1
:1008D000478B2A85208F018FE38E88E0EEE0F1E0E0
:1008E000DE01119601900D928A95E1F7D601A35988
:1008F000BF4F88E0FE01319601900D928A95E1F795
:100900002A960FB6F894DEBF0FBECDBFDF91CF9110
:100910000F91EF90DF90CF90BF90AF9008952F92FE
:100920003F924F925F926F927F928F929F92AF927F
:10093000BF92CF92DF92EF92FF920F931F93CF93CC
:10094000DF9300D000D01F92CDB7DEB71A013D83F0
:100950002C836115710511F4F90143C06B01E12C81
:10096000F12C83E0CC0CDD1CEE1CFF1C8A95D1F72A
:100970000AE610E0F1E0FB83812C94E2992E94EFDB
:10098000A92EB12C2A01612C712C42E050E0B80153
:10099000CE0101960E94561929813A8140E050E02B
:1009A000C501B4010E941717CA01B901A701960138
:1009B0000E941717223031054105510528F02415F2
:1009C00035054605570540F08B818F5F8B830E5FA1
:1009D0001F4F8730D1F609C0EB81E63059F4EC8126
:1009E000FD811182108280E012C022303105410564
:1009F0005105A8F3C101A0E0B0E082179307A40756
:100A0000B50768F3EC81FD81318320838B810F90E2
:100A10000F900F900F900F90DF91CF911F910F913A
:100A2000FF90EF90DF90CF90BF90AF909F908F900E
:100A30007F906F905F904F903F902F900895CF934D
:100A4000DF9300D0CDB7DEB7FC01658976899E01C2
:100A50002F5F3F4F4FEF5FEF0E948F048823A9F075
:100A60001092800098E09093810090918100982BE3
:100A70009093810089819A81909389008093880066
:100A800080916F00826080936F000F900F90DF91D4
:100A9000CF910895CF93DF93EC018F890E940A0FC5
:100AA00021E0892B09F420E08A8D8227DF91CF9104
:100AB0000895FC01808D0C94D40EFC01238D6227D7
:100AC000818D0C94D40ECF93DF93EC018A819B81AE
:100AD000029761F060E0CE010E945D0560E0CE010A
:100AE0000E94590582E090E09B838A83DF91CF9139
:100AF0000895CF93DF93EC018A819B81049761F085
:100B000060E0CE010E945D0560E0CE010E945905C3
:100B100084E090E09B838A83DF91CF910895CF9307
:100B2000DF93EC018A819B81039781F0FE01E659F6
:100B3000FF4F1082319610823196108261E0CE0113
:100B40000E945D0583E090E09B838A83DF91CF91D3
:100B500008956F927F929F92AF92BF92CF92DF9251
:100B6000EF92FF920F931F93CF93DF9300D0CDB7F7
:100B7000DEB73C01B62E4D3308F018C17C0125E7E5
:100B8000E20EF11CDC01ED91FC910484F585E02D71
:100B90004A83798309954A8117E0140F612F8FEFFB
:100BA0009FEF0E94A802E12FF0E0A4E0F595E79501
:100BB000AA95E1F7EC5DFD4F2081F70120831F70BE
:100BC000E12FF0E0EC5DFD4F2081F301EA58FF4F8B
:100BD0002083D3011A966C910E94A802F30122850A
:100BE000E22FF0E0B4E0F595E795BA95E1F7EC5D1A
:100BF000FD4F3081D301A958BF4F3C932F70E22F96
:100C0000F0E0EC5DFD4F2081F301E858FF4F2083B9
:100C1000D3011B966C910E94A802F3012385E22F59
:100C2000F0E014E0F595E7951A95E1F7EC5DFD4FDE
:100C30003081D301A758BF4F3C932F70E22FF0E0D3
:100C4000EC5DFD4F2081F301E658FF4F2083D30177
:100C50001C966C910E94A802F3012485E22FF0E01B
:100C600004E0F595E7950A95E1F7EC5DFD4F3081DD
:100C7000D301A558BF4F3C932F70E22FF0E0EC5DFD
:100C8000FD4F2081F301E458FF4F2083D3011D96CF
:100C90006C910E94A802F3012585E22FF0E034E078
:100CA000F595E7953A95E1F7EC5DFD4F3081D3017D
:100CB000A358BF4F3C932F70E22FF0E0EC5DFD4F47
:100CC0002081F301E258FF4F20839B2C6301F0E861
:100CD000CF0ED11C0B2D7981172F4A81202F291976
:100CE000241718F55801D8016C914A830E94A80274
:100CF000F6013197D8012D918D01A22FB0E074E05B
:100D0000B595A7957A95E1F7AC5DBD4F2C91208301
:100D1000D501EC91EF70F0E0EC5DFD4F2081F60124
:100D20002083F2E0CF0ED11CD8CF50E04B5F5F4F55
:100D3000440F551F80959095E40EF51EDC0134E0BC
:100D4000B695A7953A95E1F7AF70BB27AC5DBD4F5F
:100D50002C91D7012C93FC01EF70FF27EC5DFD4F28
:100D6000208111962C931197FC01EF2FFF27E2951C
:100D7000EF70EC5DFD4F208112962C931297E92FB6
:100D8000FF27EF70FF27EC5DFD4F808113968C935A
:100D9000F301E550FF4F445F4083C3010E948F057C
:100DA000709273036092720381E001C080E00F9043
:100DB0000F90DF91CF911F910F91FF90EF90DF90F7
:100DC000CF90BF90AF909F907F906F900895862FA7
:100DD00086958695887098E0980F891749F0E82FD6
:100DE000F0E0EC5DFD4F2081621719F08F5FF5CFC9
:100DF00080E00895FF920F931F93CF93DF93EC0150
:100E0000F12C8FEF9FEF8E0107591F4FF8012081C2
:100E1000F21640F4FE01EF0DF11D65A10E94A8023B
:100E2000F394F4CF883B904F39F08F8598890196E1
:100E3000988B8F871D8E19C08EA18E838FA18F8373
:100E400088A5888789A589878D81811107C09E81A2
:100E50008C81981719F08E818F3F39F489899A898E
:100E600001969A8B898B81E08D8FDF91CF911F91B5
:100E70000F91FF900895CF93DF93EC018A819B81BE
:100E8000039761F0CE010E9479058C8D882321F0B3
:100E9000CE010E94FA061C8E8D8D01C080E0DF918C
:100EA000CF9108951F93CF93DF93EC010E944A05E1
:100EB000882319F09F8D9F5F9F8F9E8D891771F0FA
:100EC00098A1903518F42BE030E002C02DE130E01D
:100ED00098A1290F311D28A38E8F03C088A18C5E95
:100EE00088A388A1803A08F46EC08AA19BA1969538
:100EF00087959BA38AA38F8D853028F08AA19BA11B
:100F000098609BA38AA388A1805A88A31F8E89A179
:100F1000882309F446C08CA18F5F8CA38C3008F421
:100F200052C06AA17BA16F73CE010E94E706182F01
:100F30006AA17BA146E0769567954A95E1F7CE01D7
:100F40000E94E70690E1199F90011124822BBE01B7
:100F500067597F4FFB019081DE01A859BF4F99234C
:100F6000B1F0FB01908121E0290F2083AE01490FF0
:100F7000511DFA0185A3FB0190818C91981778F09F
:100F800019A281E08C8FCE010E94630508C08C936A
:100F90009C91973090F09C91943478F4E2CF1CA20D
:100FA00012C08AA19BA188339B4069F481E089A388
:100FB0001CA2C759DF4F188206C019A28F859889D5
:100FC0000196988B8F87DF91CF911F910895CF92D3
:100FD000DF92EF92FF920F931F93CF93DF93EC0179
:100FE0008C0104591F4FF801808191E0980F908384
:100FF000811136C06E01FAE6CF0ED11CF601808158
:10100000EF56FF4F9081891748F0CE010E9463058B
:101010008B899C8901969C8B8B8B22C0FE01E80FEB
:10102000F11DE359FF4F608170E07E01FBE6EF0E9A
:10103000F11CF701808191E0980F908302C07595B3
:1010400067958A95E2F76170CE010E945905F70114
:101050008081863028F01082F60180818F5F808346
:10106000F8018081883008F01082DF91CF911F91C4
:101070000F91FF90EF90DF90CF900895FC012281B7
:1010800033812430310511F40C945207FC01228184
:1010900033812330310511F40C94E70708951F9232
:1010A0000F920FB60F9211242F933F934F935F939C
:1010B0006F937F938F939F93AF93BF93EF93FF9320
:1010C00080917203909173030E943E08FF91EF910B
:1010D000BF91AF919F918F917F916F915F914F9150
:1010E0003F912F910F900FBE0F901F9018951F9357
:1010F000CF93DF93EC010E94C602182F8823B1F032
:10110000D0937303C093720361E0888D0E949B0E9D
:1011100060E08F890E949B0E61E0898D0E949B0E8A
:10112000CE010E946305CE010E941F05812FDF9131
:10113000CF911F910895CF93CFB7F8948091750305
:10114000811127C0E8EAF0E08491E4E9F0E09491AD
:10115000E82FF0E0EE0FFF1FEA53FF4FA591B49187
:101160008C91892321F461E08AE00E94D40E61E031
:101170008AE00E949B0E8CB580618CBD8CB580642A
:101180008CBD61E08DE00E949B0E61E08BE00E94CF
:101190009B0E809175038F5F80937503CFBFCF91B6
:1011A00008959FB7F89480917503882319F08150B2
:1011B0008093750380917503811105C08CB58F7B79
:1011C0008CBD109274039FBF0895DC0115966C933B
:1011D000159716964C93169770E0FB01E657FF4F54
:1011E000E4911796EC931797FB01E256FF4F649139
:1011F00018966C93189740E85EE360E070E01D96E7
:101200004D935D936D937C9350970895CF93DF93A7
:10121000EC0162E08D810E949B0E40E358EF6FEF7E
:101220007FEF49875A876B877C87DF91CF9108953D
:101230004F925F926F927F928F929F92AF92BF92E6
:10124000CF92DF92EF92FF920F931F93CF93DF9392
:10125000CDB7DEB728970FB6F894DEBF0FBECDBF6F
:101260004A015B01280139011E2DE11010C026E65C
:1012700036E646EE5FE3C501B4010E94671620E042
:1012800030E040E052E40E94A2144B015C0120E0F7
:1012900030E044E752E4C501B4010E94A2146B019E
:1012A0007C0120E030E048E852E4C501B4010E942E
:1012B000A1142AE939E949E95FE30E9467169B0115
:1012C000AC01C701B6010E94A2146B017C0122E1AE
:1012D00033E840EC5DE3C301B2010E9467169B0155
:1012E000AC01C701B6010E94A21420E030E040E04A
:1012F0005FE30E946716F62ED72EE82EC92E20E057
:1013000030E04EE952E40E94631618160CF07DC1DD
:10131000A5019401C501B4010E9467166B017C010F
:10132000A3019201C301B2010E9467166D837E83FF
:101330008F83988721E133E243E050E4C501B40193
:101340000E94671629E134E849E252E40E94A114A0
:1013500069837A838B839C8326E13BE442E251E4F8
:10136000C301B2010E9467169B01AC0169817A81B9
:101370008B819C810E94A21469837A838B839C83D6
:1013800028E436E246E65EEBC501B4010E9467162A
:10139000A30192010E9467169B01AC0169817A81C9
:1013A0008B819C810E94A21469837A838B839C83A6
:1013B00020EE3FE040EE5BEBC701B6010E946716EE
:1013C0009B01AC0169817A818B819C810E94A2146E
:1013D00069837A838B839C8328EF37E840E65DEB53
:1013E0006D817E818F8198850E9467169B01AC017B
:1013F00069817A818B819C810E94A21469837A839E
:101400008B839C832CEA3DE041EA5AE3C701B60195
:101410000E946716A30192010E9467169B01AC010E
:1014200069817A818B819C810E94A21469837A836D
:101430008B839C8328EC3FE84FE55AE3C501B40158
:101440000E9467162D813E814F8158850E94671644
:101450009B01AC0169817A818B819C810E94A214DD
:1014600069837A838B839C8321EF3BE845E056EBCD
:10147000C701B6010E9467162D813E814F815885B4
:101480000E9467169B01AC0169817A818B819C81E6
:101490000E94A214F62ED72EE82EC92E20E030E0AE
:1014A00040E551E4C301B2010E94061587FF5EC00A
:1014B00020E030E040EA52E4C501B4010E94631626
:1014C00087FD54C020E030E040EE52E4C501B40195
:1014D0000E94061518160CF4AFC0A301920160E03B
:1014E00070E080E591E40E94A11420E030E040E843
:1014F0005EE30E9467162B013C0120E030E04EEBDA
:1015000052E4C501B4010E94A1144B015C0120E02A
:1015100030E0A9010E94631618164CF4A50194014D
:1015200060E070E088E891E40E94A11408C020E027
:1015300030E048E851E4C501B4010E94A2142EE352
:101540003DEE40E75DE30E9467160E94CE169B01C8
:10155000AC01C301B2010E9467169B01AC016F2D63
:101560007D2D8E2D9C2D0E94A1144BC020E030E0DB
:101570004AEA52E4C301B2010E94631618160CF045
:1015800044C020E030E040EA52E4C501B4010E94CA
:10159000631687FD3AC020E030E04EEA52E4C50110
:1015A000B4010E940615181684F120E030E04AEAE2
:1015B00052E4C301B2010E94A1142DEC3CEC4CECAE
:1015C0005DE30E9467162B013C01A501940160E0D8
:1015D00070E08EEA92E40E94A1142DEC3CEC4CE405
:1015E0005EE30E9467169B01AC01C301B2010E9439
:1015F00067169B01AC016F2D7D2D8E2D9C2D0E94B9
:10160000A214F62ED72EE82EC92E111121C020E0EB
:1016100030E040E052E46F2D7D2D8E2D9C2D0E94F8
:10162000A11426E838E34EE05FE30E946716F62E29
:10163000D72EE82EC92E0CC020E030E04AEA52E452
:10164000C301B2010E94631618160CF4A4CFDDCFBB
:101650006F2D7D2D8E2D9C2D28960FB6F894DEBF14
:101660000FBECDBFDF91CF911F910F91FF90EF90F3
:10167000DF90CF90BF90AF909F908F907F906F90B2
:101680005F904F900895AF92BF92CF92DF92EF920A
:10169000FF920F931F93CF93DF93EC01AF806623EC
:1016A00011F0BA2C01C0B12CA885B0E0AA0FBB1F65
:1016B000AE54BF4F40E050E0BA01FD0185919491D6
:1016C000FC0180818A218B1112C08A019B010F5F6E
:1016D0001F4F2F4F3F4FCD84DE84EF84F8884C1589
:1016E0005D056E057F0538F4B901A801E6CF342FFA
:1016F000252FCB0104C030E020E080E090E0632F94
:10170000722FDF91CF911F910F91FF90EF90DF909B
:10171000CF90BF90AF900895CF92DF92EF92FF925B
:101720000F931F93CF93DF93CDB7DEB7C054D14053
:101730000FB6F894DEBF0FBECDBF8C01F62E0E940F
:10174000C30DF11016C0F801C184D284E384F4847F
:101750009B01AC012C193D094E095F0969017A0111
:1017600030EDC31637E0D306E104F10410F48189AB
:10177000BAC0F801618772878387948714821382C5
:1017800012821182108261E085810E94D40E6AEF7C
:1017900070E080E090E00E94F20D61E0F801858148
:1017A0000E949B0E60E0F80185810E94D40E64E1E6
:1017B00070E080E090E00E94F20DF89461E0F801A2
:1017C00085810E94D40E88E290E00E942C0E62E097
:1017D000F80185810E949B0E8AE090E00E942C0E09
:1017E00060E0C8010E94430B672B682B692B41F016
:1017F00061E0C8010E94430B672B682B692B21F421
:10180000F801118A78946EC06E01FFEBCF1AFEEFDB
:10181000DF0A9E012F5F3F4F790160E0C8010E94FF
:10182000430BF701608371838283938361E0C80176
:101830000E94430BF7016483758386839783F8E0E6
:10184000EF0EF11CEC14FD0441F778949E012F5F1C
:101850003F4F790120E030E0F70140815181628102
:10186000738184819581A681B781411551056105F8
:101870007105B1F10097A105B10591F1F901F59557
:10188000E795F595E795F595E795E00FF11FD08081
:10189000DD0C481759076A077B0710F0D08203C098
:1018A0008D2D816080832F5F3F4FF8E0EF0EF11C9C
:1018B0002832310589F6F801248130E040818181A8
:1018C00090E0840F911D4281840F911D4381840F0C
:1018D000911D99272817390719F481E0818B03C0DE
:1018E000F801118A80E0C05CDE4F0FB6F894DEBFCD
:1018F0000FBECDBFDF91CF911F910F91FF90EF9061
:10190000DF90CF900895CF92DF92EF92FF920F93E6
:101910001F93CF93DF93EC01162F642F0E948C0B43
:10192000882309F443C08E818B3031F008F43EC027
:101930008551823040F03AC06A8170E080E090E0EA
:101940000E94A31524C00A81602F6F7770E080E0A9
:1019500090E00E94A51520E030E040E853E40E94AA
:1019600067166B017C016B8170E080E090E00E9463
:10197000A5159B01AC01C701B6010E94A2142DEC74
:101980003CEC4CEC5DE30E94671607FD9058112378
:1019900089F026E636E646EE5FE30E94671620E011
:1019A00030E040E052E40E94A21404C060E070E025
:1019B00080EC9FE7DF91CF911F910F91FF90EF9007
:1019C000DF90CF900895CF92DF92EF92FF92CF9366
:1019D000DF93EC0160E00E948C0B882379F18E810B
:1019E0008B3029F158F18551823040F5688170E0E3
:1019F00080E090E00E94A31520E030E040E853E44E
:101A00000E9467166B017C01698170E080E090E0C4
:101A10000E94A5159B01AC01C701B6010E94A2144A
:101A20002DEC3CEC4CEC5DE30E9467160BC068812A
:101A300070E080E090E00E94A31504C060E070E0D8
:101A400080EC9FE7DF91CF91FF90EF90DF90CF90F8
:101A5000089508951F920F920FB60F9211242F939D
:101A60003F934F935F936F937F938F939F93AF9326
:101A7000BF93EF93FF93E0910A01F0910B01099559
:101A8000FF91EF91BF91AF919F918F917F916F9156
:101A90005F914F913F912F910F900FBE0F901F902C
:101AA00018951F920F920FB60F9211242F933F9308
:101AB0004F935F936F937F938F939F93AF93BF9356
:101AC000EF93FF93E0910C01F0910D010995FF91C7
:101AD000EF91BF91AF919F918F917F916F915F91A6
:101AE0004F913F912F910F900FBE0F901F9018951F
:101AF00008951F920F920FB60F9211242F933F93C8
:101B00008F939F93AF93BF938091770390917803C6
:101B1000A0917903B0917A033091760323E0230FEB
:101B20002D3720F40196A11DB11D05C026E8230F15
:101B30000296A11DB11D20937603809377039093A5
:101B40007803A0937903B0937A0380917B039091FB
:101B50007C03A0917D03B0917E030196A11DB11D70
:101B600080937B0390937C03A0937D03B0937E03CB
:101B7000BF91AF919F918F913F912F910F900FBE89
:101B80000F901F9018952FB7F8946091770370917C
:101B900078038091790390917A032FBF08953FB71E
:101BA000F89480917B0390917C03A0917D03B09188
:101BB0007E0326B5A89B05C02F3F19F00196A11DF5
:101BC000B11D3FBF6627782F892F9A2F620F711D95
:101BD000811D911D42E0660F771F881F991F4A954E
:101BE000D1F708958F929F92AF92BF92CF92DF92DA
:101BF000EF92FF926B017C010E94CF0D4B015C01C3
:101C0000C114D104E104F104F1F00E94780D0E94A6
:101C1000CF0D681979098A099B09683E73408105CF
:101C2000910570F321E0C21AD108E108F10888EEAD
:101C3000880E83E0981EA11CB11CC114D104E104DC
:101C4000F10429F7DDCFFF90EF90DF90CF90BF90A8
:101C5000AF909F908F9008958230910538F0880F53
:101C6000991F880F991F05970197F1F708957894A8
:101C700084B5826084BD84B5816084BD85B5826091
:101C800085BD85B5816085BDEEE6F0E0808181602F
:101C90008083E1E8F0E0108280818260808380812F
:101CA00081608083E0E8F0E0808181608083E1EB07
:101CB000F0E0808184608083E0EBF0E080818160EF
:101CC0008083EAE7F0E080818460808380818260A5
:101CD000808380818160808380818068808310928E
:101CE000C1000895833081F028F4813099F082306A
:101CF000A1F008958730A9F08830B9F08430D1F48C
:101D0000809180008F7D03C0809180008F778093C9
:101D10008000089584B58F7702C084B58F7D84BD1F
:101D200008958091B0008F7703C08091B0008F7DBF
:101D30008093B0000895CF93DF9390E0FC01E657C5
:101D4000FF4F2491FC01E256FF4F8491882349F113
:101D500090E0880F991FFC01EA53FF4FA591B491C1
:101D600084549F4FFC01C591D4919FB7611108C065
:101D7000F8948C91209582238C93888182230AC0C9
:101D8000623051F4F8948C91322F309583238C93E8
:101D90008881822B888304C0F8948C91822B8C9349
:101DA0009FBFDF91CF9108950F931F93CF93DF9340
:101DB0001F92CDB7DEB7282F30E0F901EA58FF4F68
:101DC0008491F901E657FF4F1491F901E256FF4F54
:101DD00004910023C9F0882321F069830E94720EC8
:101DE0006981E02FF0E0EE0FFF1FE454FF4FA59153
:101DF000B4919FB7F8948C91611103C01095812321
:101E000001C0812B8C939FBF0F90DF91CF911F91C9
:101E10000F910895CF93DF93282F30E0F901EA580E
:101E2000FF4F8491F901E657FF4FD491F901E25633
:101E3000FF4FC491CC2391F081110E94720EEC2FC0
:101E4000F0E0EE0FFF1FEE54FF4FA591B4912C91DF
:101E50002D2381E090E021F480E002C080E090E05A
:101E6000DF91CF910895FC01818D228D90E0805CFF
:101E70009F4F821B91098F7399270895FC01918DC3
:101E8000828D981731F0828DE80FF11D858D90E0DD
:101E900008958FEF9FEF0895FC01918D828D981723
:101EA00061F0828DDF01A80FB11D5D968C91928D3E
:101EB0009F5F9F73928F90E008958FEF9FEF08953B
:101EC00080ED90E1892B49F080E090E0892B29F0AA
:101ED0000E94D01081110C9400000895FC01848DA3
:101EE000DF01A80FB11DA35ABF4F2C91848D90E044
:101EF00001968F739927848FA689B7892C93A0891F
:101F0000B1898C9180648C93938D848D981306C0D5
:101F10000288F389E02D80818F7D80830895CF939F
:101F2000DF93EC01888D8823C9F0EA89FB898081E1
:101F300085FD05C0A889B9898C9186FD0FC00FB6B3
:101F400007FCF5CF808185FFF2CFA889B9898C91F4
:101F500085FFEDCFCE010E946E0FE7CFDF91CF91CD
:101F60000895CF92DF92FF920F931F93CF93DF9349
:101F70001F92CDB7DEB76C0181E0D60158968C93E5
:101F800058975B969C915B975C968C915C979813A5
:101F900007C05096ED91FC915197808185FD2EC030
:101FA000F601038D10E00F5F1F4F0F731127F02E06
:101FB000F601848DF81211C00FB607FCF9CFD601D7
:101FC0005096ED91FC915197808185FFF1CFC6012C
:101FD00069830E946E0F6981EBCF838DE80FF11D3D
:101FE000E35AFF4F6083D6015B960C935B97529642
:101FF000ED91FC915397808180620CC0D60156967A
:10200000ED91FC91579760835096ED91FC9151971B
:1020100080818064808381E090E00F90DF91CF9198
:102020001F910F91FF90DF90CF900895BF92CF92B4
:10203000DF92EF92FF92CF93DF93EC016A017B0175
:10204000B22EE889F98982E08083411581EE580734
:1020500061057105A1F060E079E08DE390E0A701F2
:1020600096010E94171721503109410951095695CF
:10207000479537952795211580E1380798F0E8892D
:10208000F989108260E874E88EE190E0A70196017A
:102090000E9417172150310941095109569547955A
:1020A00037952795EC85FD853083EE85FF85208368
:1020B000188EEC89FD89B082EA89FB898081806174
:1020C0008083EA89FB89808188608083EA89FB8933
:1020D000808180688083EA89FB8980818F7D80830D
:1020E000DF91CF91FF90EF90DF90CF90BF90089558
:1020F0001F920F920FB60F9211242F938F939F93DD
:10210000EF93FF93E0918F03F09190038081E09132
:102110009503F091960382FD12C0908180919803FF
:102120008F5F8F7320919903821751F0E09198038C
:10213000F0E0E158FC4F958F8093980301C08081B7
:10214000FF91EF919F918F912F910F900FBE0F9064
:102150001F9018951F920F920FB60F9211242F9374
:102160003F934F935F936F937F938F939F93AF931F
:10217000BF93EF93FF938FE793E00E946E0FFF9161
:10218000EF91BF91AF919F918F917F916F915F91EF
:102190004F913F912F910F900FBE0F901F90189568
:1021A0008FE793E00E94330F21E0892B09F420E0B0
:1021B000822F0895109282031092810388EE93E09B
:1021C000A0E0B0E08093830390938403A093850301
:1021D000B093860388E392E09093800380937F031B
:1021E00085EC90E090938C0380938B0384EC90E0DB
:1021F00090938E0380938D0380EC90E090939003F6
:1022000080938F0381EC90E09093920380939103ED
:1022100082EC90E0909394038093930386EC90E09B
:1022200090939603809395031092980310929903CC
:1022300010929A0310929B030895CF92DF92EF922F
:10224000FF920F931F93CF93DF937C016A01EB0101
:1022500000E010E00C151D0571F06991D701ED91BA
:10226000FC910190F081E02DC7010995892B19F0AF
:102270000F5F1F4FEFCFC801DF91CF911F910F91DB
:10228000FF90EF90DF90CF9008956115710581F078
:10229000DB010D900020E9F7AD0141505109461BCB
:1022A000570BDC01ED91FC910280F381E02D099444
:1022B00080E090E00895DC01ED91FC91DB01149643
:1022C0004D915C9115976D917C910280F381E02D89
:1022D00009940C944511DC01ED91FC910190F08181
:1022E000E02D099464E472E00C9445110F931F9360
:1022F000CF93DF93EC010E945B118C01CE010E9411
:102300007211800F911FDF91CF911F910F9108954E
:102310000F931F93CF93DF93EC010E9445118C0123
:10232000CE010E947211800F911FDF91CF911F91FA
:102330000F9108958F929F92AF92BF92DF92EF928A
:10234000FF920F931F93CF93DF93CDB7DEB7A19783
:102350000FB6F894DEBF0FBECDBF7C01F42FD52E93
:10236000CB0119A2223008F42AE08E010F5D1F4F25
:10237000822E912CA12CB12C6F2F7D2DA5019401C3
:102380000E941717F22FD32ECA01015011096A308B
:1023900014F4E0E301C0E7E3E60FD801EC93232B4C
:1023A000242B252B49F7B801C7010E944511A1969E
:1023B0000FB6F894DEBF0FBECDBFDF91CF911F9156
:1023C0000F91FF90EF90DF90BF90AF909F908F9014
:1023D0000895CF92DF92EF92FF920F931F93CF93C6
:1023E000DF93EC016A017B012115310579F4E88165
:1023F000F9810190F081E02D642FDF91CF911F9141
:102400000F91FF90EF90DF90CF9009942A30310523
:10241000E9F477FF1AC06DE20E946B118C0144272A
:102420005527BA014C195D096E097F092AE0CE01D2
:102430000E949A11800F911FDF91CF911F910F91F0
:10244000FF90EF90DF90CF9008952AE0B701A601AA
:10245000CE01DF91CF911F910F91FF90EF90DF9010
:10246000CF900C949A114F925F926F927F928F92BD
:102470009F92AF92BF92CF92DF92EF92FF920F9313
:102480001F93CF93DF93EC016A017B01B22E9A0177
:10249000AB01C701B6010E940C17882319F067E44D
:1024A00072E027C026013701E89477F82FEF3FEF5D
:1024B0004FE75FE7C301B2010E940C1781110DC005
:1024C0002FEF3FEF4FE75FE7C301B2010E94061510
:1024D00018161CF46BE472E00CC02FEF3FEF4FE7CF
:1024E0005FE4C701B6010E9463161816ACF46FE4EE
:1024F00072E0CE01DF91CF911F910F91FF90EF908D
:10250000DF90CF90BF90AF909F908F907F906F9013
:102510005F904F900C9445112FEF3FEF4FE75FEC2A
:10252000C701B6010E94061587FDE1CF20E030E02B
:10253000A901C701B6010E94061587FF0AC06DE216
:10254000CE010E946B118C01F7FAF094F7F8F09429
:1025500002C000E010E0A12C60E070E080E09FE3AA
:10256000AB1441F020E030E040E251E40E940A1553
:10257000A394F6CF9B01AC01C701B6010E94A2143F
:102580006B017C010E9477152B013C010E94A31571
:102590009B01AC01C701B6010E94A1146B017C0133
:1025A0002AE0B301A201CE010E949A11080F191F5F
:1025B000BB2039F063E572E0CE010E944511080F9F
:1025C000191F7B2C772041F120E030E040E251E4FC
:1025D000C701B6010E9467166B017C010E9472154B
:1025E0004B01AA2497FCA094BA2C2AE030E0B50154
:1025F000A401CE010E94E911080F191FC501B40101
:102600000E94A5159B01AC01C701B6010E94A1144F
:102610006B017C017A94D6CFC801DF91CF911F91D5
:102620000F91FF90EF90DF90CF90BF90AF909F9071
:102630008F907F906F905F904F9008950C9433121D
:10264000FC01808191810C94F817CF93DF93EC010A
:1026500088819981009711F00E94F81719821882D9
:102660001D821C821B821A82DF91CF9108950F93E5
:102670001F93CF93DF93EC018B016F5F7F4F8881B6
:1026800099810E948718009731F0998388831B8372
:102690000A8381E001C080E0DF91CF911F910F910B
:1026A0000895CF93DF93EC0188819981892B29F0DC
:1026B0008A819B818617970760F4CE010E943713A9
:1026C000882341F08C819D81892B19F4E881F9815F
:1026D000108281E0DF91CF910895EF92FF920F93E6
:1026E0001F93CF93DF93EC017B018A01BA010E9413
:1026F0005113811104C0CE010E94251307C01D8310
:102700000C83B701888199810E946819CE01DF91FD
:10271000CF911F910F91FF90EF900895FC011182CE
:10272000108213821282158214826115710559F08C
:10273000FB0101900020E9F7AF0141505109461B10
:10274000570B0C946D130895CF93DF93EC01FB01AD
:102750008617970761F0608171816115710529F015
:10276000448155810E946D1302C00E942513CE0141
:10277000DF91CF910895FC011182108213821282A1
:10278000158214820C94A413CF93DF93EC0161158E
:10279000710561F0FB0101900020E9F7AF014150A4
:1027A0005109461B570B0E946D1302C00E9425134E
:1027B000CE01DF91CF910895EF92FF920F931F9377
:1027C000CF93DF93CDB7DEB7A1970FB6F894DEBFF6
:1027D0000FBECDBF7C01CB01BA01F701118210827F
:1027E000138212821582148242E0420F8E010F5F23
:1027F0001F4F0E943F17BC01C7010E94C413A1963E
:102800000FB6F894DEBF0FBECDBFDF91CF911F9101
:102810000F91FF90EF900895EF92FF920F931F9307
:10282000CF93DF93EC017B010C811D816115710554
:1028300011F480E016C04115510591F0040F151FE9
:10284000B8010E9451138823A1F3288139818C811A
:102850009D81B701820F931F0E9468191D830C830D
:1028600081E0DF91CF911F910F91FF90EF9008953C
:10287000CF93DF93EC01FB0144815581608171812D
:102880000E940C14811103C0CE010E942513CE01B9
:10289000DF91CF910895CF93DF93EC01611571051E
:1028A00069F0FB0101900020E9F7AF0141505109A7
:1028B000461B570B0E940C14811103C0CE010E94CD
:1028C0002513CE01DF91CF9108950F931F93CF93DE
:1028D000DF93EB0141155105E9F02097D9F0FC0198
:1028E0006481758126173707A0F4621B730B8A0178
:1028F000015011096017710708F48B01FC01608118
:102900007181620F731FA801CE010E946F19C00F61
:10291000D11F1882DF91CF911F910F9108950E94CE
:10292000511908950E94370E0E9491140E9433019C
:10293000C0E6DFE00E94E4012097E1F30E94600F0F
:10294000F9CF5058BB27AA270ED083C174D130F0DD
:1029500079D120F031F49F3F11F41EF469C10EF4D7
:10296000E095E7FB51C1E92F85D180F3BA176207E3
:1029700073078407950718F071F49EF59DC10EF456
:10298000E0950B2EBA2FA02D0B01B90190010C017F
:10299000CA01A0011124FF27591B99F0593F50F497
:1029A000503E68F11A16F040A22F232F342F4427EF
:1029B000585FF3CF469537952795A795F0405395E7
:1029C000C9F77EF41F16BA0B620B730B840BBAF0B7
:1029D0009150A1F0FF0FBB1F661F771F881FC2F722
:1029E0000EC0BA0F621F731F841F48F48795779536
:1029F0006795B795F7959E3F08F0B3CF9395880FED
:102A000008F09927EE0F979587950895D9D008F487
:102A100081E008950CD01DC115D140F00CD130F0EB
:102A200021F45F3F19F0F0C0511147C101C122D11B
:102A300098F39923C9F35523B1F3951B550BBB2785
:102A4000AA2762177307840738F09F5F5F4F220F32
:102A5000331F441FAA1FA9F333D00E2E3AF0E0E82B
:102A600030D091505040E695001CCAF729D0FE2F77
:102A700027D0660F771F881FBB1F26173707480709
:102A8000AB07B0E809F0BB0B802DBF01FF279358BF
:102A90005F4F2AF09E3F510568F0B6C00EC15F3F00
:102AA000ECF3983EDCF3869577956795B795F795A7
:102AB0009F5FC9F7880F911D9695879597F908959F
:102AC000E1E0660F771F881FBB1F6217730784073B
:102AD000BA0720F0621B730B840BBA0BEE1F88F74A
:102AE000E095089504D06894B111E7C00895CAD064
:102AF00088F09F5790F0B92F9927B751A0F0D1F0E7
:102B0000660F771F881F991F1AF0BA95C9F712C070
:102B1000B13081F0D1D0B1E00895CEC0672F782FC9
:102B20008827B85F39F0B93FCCF3869577956795DC
:102B3000B395D9F73EF490958095709561957F4F48
:102B40008F4F9F4F0895E89409C097FB3EF49095EE
:102B50008095709561957F4F8F4F9F4F9923A9F076
:102B6000F92F96E9BB279395F69587957795679505
:102B7000B795F111F8CFFAF4BB0F11F460FF1BC049
:102B80006F5F7F4F8F4F9F4F16C0882311F096E9DC
:102B900011C0772321F09EE8872F762F05C066238A
:102BA00071F096E8862F70E060E02AF09A95660F43
:102BB000771F881FDAF7880F9695879597F90895FC
:102BC000990F0008550FAA0BE0E8FEEF161617063E
:102BD000E807F907C0F012161306E407F50798F0A6
:102BE000621B730B840B950B39F40A2661F0232BBF
:102BF000242B252B21F408950A2609F4A140A6953B
:102C00008FEF811D811D089597F99F6780E870E01F
:102C100060E008959F3F31F0915020F487957795BB
:102C20006795B795880F911D9695879597F90895A3
:102C30009FEF80EC089500240A94161617061806D4
:102C40000906089500240A941216130614060506B0
:102C50000895092E0394000C11F4882352F0BB0F41
:102C600040F4BF2B11F460FF04C06F5F7F4F8F4FA4
:102C70009F4F089557FD9058440F551F59F05F3FDF
:102C800071F04795880F97FB991F61F09F3F79F08E
:102C900087950895121613061406551FF2CF469510
:102CA000F1DF08C0161617061806991FF1CF869592
:102CB0007105610508940895E894BB276627772776
:102CC000CB0197F908957CDF08F48FEF08950BD0BE
:102CD000C0CFB1DF28F0B6DF18F0952309F094CF0C
:102CE000A7CF1124EACFC6DFA0F3959FD1F3950FAC
:102CF00050E0551F629FF001729FBB27F00DB11D80
:102D0000639FAA27F00DB11DAA1F649F6627B00D0F
:102D1000A11D661F829F2227B00DA11D621F739FF8
:102D2000B00DA11D621F839FA00D611D221F749F06
:102D30003327A00D611D231F849F600D211D822F4D
:102D4000762F6A2F11249F5750408AF0E1F0882394
:102D50004AF0EE0FFF1FBB1F661F771F881F9150A1
:102D60005040A9F79E3F510570F04ECFA6CF5F3F70
:102D7000ECF3983EDCF3869577956795B795F795D4
:102D8000E7959F5FC1F7FE2B880F911D969587955C
:102D900097F9089511F40EF44BCF3CCF73DFD0F3C5
:102DA0009923D9F3CEF39F57550B87FF39D00024D1
:102DB000A0E640EA900180585695979528F4805CEB
:102DC000660F771F881F20F026173707480730F453
:102DD000621B730B840B202931294A2BA69517946B
:102DE0000794202531254A2758F7660F771F881F3B
:102DF00020F026173707480730F4620B730B840B5B
:102E0000200D311D411DA09581F7B901842F9158E6
:102E1000880F969587950895D3DE880B990B0895B2
:102E200091505040660F771F881FD2F70895A1E296
:102E30001A2EAA1BBB1BFD010DC0AA1FBB1FEE1F34
:102E4000FF1FA217B307E407F50720F0A21BB30B7F
:102E5000E40BF50B661F771F881F991F1A9469F7FB
:102E600060957095809590959B01AC01BD01CF0157
:102E70000895EE0FFF1F0590F491E02D0994EF9255
:102E80000F931F93CF93DF93E80147FF02C034E114
:102E900001C034E0E42FFF27E7FDF095F7FF03C002
:102EA000F195E195F109E32E022F2E2FAE010E943C
:102EB0007E19CE01DF91CF911F910F91EF90089570
:102EC000CF93DF938230910510F482E090E0E0919F
:102ED0001E04F0911F0420E030E0A0E0B0E0309745
:102EE00039F14081518148175907B8F048175907FF
:102EF00071F482819381109729F013969C938E939D
:102F000012972CC090931F0480931E0427C0211594
:102F1000310531F04217530718F0A901DB0101C058
:102F2000EF019A01BD01DF010280F381E02DD7CFCF
:102F300021153105F9F0281B390B2430310580F4B7
:102F40008A819B816115710521F0FB019383828346
:102F500004C090931F0480931E04FE01329644C067
:102F6000FE01E20FF31F81939193225031093983BF
:102F700028833AC020911C0430911D04232B41F476
:102F8000209102013091030130931D0420931C0411
:102F900020910001309101012115310541F42DB737
:102FA0003EB74091040150910501241B350BE0917F
:102FB0001C04F0911D04E217F307A0F42E1B3F0B35
:102FC0002817390778F0AC014E5F5F4F241735079B
:102FD00048F04E0F5F1F50931D0440931C048193D3
:102FE000919302C0E0E0F0E0CF01DF91CF9108952E
:102FF000CF93DF93009709F487C0FC0132971382C7
:103000001282C0911E04D0911F04209781F4208168
:103010003181280F391F80911C0490911D04821763
:10302000930779F5F0931D04E0931C046DC0DE0155
:1030300020E030E0AE17BF0750F412964D915C913E
:1030400013979D014115510509F1DA01F3CFB383BF
:10305000A28340815181840F951F8A179B0771F4C9
:103060008D919C911197840F951F02969183808377
:1030700012968D919C91139793838283211531052C
:1030800029F4F0931F04E0931E043EC0D901139667
:10309000FC93EE9312974D915D91A40FB51FEA1723
:1030A000FB0779F480819181840F951F0296D901E5
:1030B00011969C938E938281938113969C938E9309
:1030C0001297E0E0F0E08A819B81009719F0FE0101
:1030D000EC01F9CFCE01029628813981820F931F2E
:1030E00020911C0430911D042817390769F430978A
:1030F00029F410921F0410921E0402C0138212823F
:10310000D0931D04C0931C04DF91CF910895A0E0DB
:10311000B0E0EDE8F8E10C94D81BEC01CB0120976E
:1031200019F40E946017B8C0FE01E60FF71F9E0158
:1031300022503109E217F30708F4ACC0D9010D9110
:103140001C91119706171707B8F00530110508F400
:103150009FC0A801445051094617570708F498C06A
:1031600002501109061B170B019311936D937C9369
:10317000CF010E94F8178CC05B01A01AB10A4E0162
:10318000800E911EA0911E04B0911F04612C712C21
:1031900060E070E0109709F449C0A815B905C9F5B9
:1031A000ED90FC901197670142E0C40ED11CCA1447
:1031B000DB0478F147018A189B08640142E0C40EE1
:1031C000D11C1296BC9012971396AC91B5E0CB1619
:1031D000D10440F0B282A38391828082D9018D9381
:1031E0009C9309C00E5F1F4F0E0D1F1DF901118327
:1031F0000083EB2DFA2F6115710531F0DB01139679
:10320000FC93EE93129744C0F0931F04E0931E04C6
:103210003FC06D917C9111976616770608F43B01CB
:10322000BD0112960D90BC91A02DB4CF60911C04ED
:1032300070911D0468157905E9F468167906D0F4D3
:1032400040910001509101014115510541F44DB7E4
:103250005EB76091040170910501461B570BE4179E
:10326000F507C0F4F0931D04E0931C04F901918369
:1032700080830EC00E9460177C01009759F0A8015E
:10328000BE010E945F19CE010E94F817C70104C059
:10329000CE0102C080E090E0CDB7DEB7EEE00C9446
:1032A000F41B81E090E0F8940C940B1CFB01DC0112
:1032B00002C005900D9241505040D8F70895FB018F
:1032C000DC0102C001900D9241505040D8F70895A2
:1032D000FB01DC0101900D920020E1F70895FB0154
:1032E000DC014150504048F001900D920020C9F798
:1032F00001C01D9241505040E0F708956F927F92B7
:103300009F92AF92BF92CF92DF92EF92FF920F9374
:103310001F93CF93DF93CDB7DEB729970FB6F894FD
:10332000DEBF0FBECDBF6A01B22E102F0C3320F4CA
:10333000FF24F394F00E02C04CE3F42E0F2D27E08F
:10334000AE014F5F5F4F0E94FC1A7981272F2970D1
:10335000213031F0E1FC06C0E0FC06C060E005C0B1
:103360006DE203C06BE201C060E2AE2DA07173FF9D
:1033700036C0662311F084E001C083E08B1510F4A1
:10338000B81A01C0B12CA1110BC0F6018B2D90E22F
:10339000882319F091938150FBCFCB0CD11CB12C19
:1033A000662331F0F601608396012F5F3F4F69017C
:1033B000C6010396E2FE05C02EE4F601208331E447
:1033C00004C02EE6F601208331E631832283FC011E
:1033D0002B2D30E22223F1F131932150FBCF72FFEC
:1033E00040C0662311F084E001C083E08B1510F427
:1033F000B81A01C0B12CA1110BC0F6018B2D90E2BF
:10340000882319F091938150FBCFCB0CD11CB12CA8
:10341000662331F0F601608396012F5F3F4F69010B
:10342000C6010396E2FE07C029E4F60120832EE4DC
:10343000218326E406C029E6F60120832EE62183B7
:1034400026E62283FC012B2D30E2222319F0319352
:103450002150FBCFFC01EB0DF11D10828EEF9FEF91
:10346000B7C0B1E0611101C0B0E04B2F50E01816B9
:10347000190624F49C012F5F3F4F02C021E030E089
:10348000240F351F112329F0412F50E04F5F5F4F6C
:1034900002C040E050E0420F531F2B2D30E0421796
:1034A000530714F4B41A01C0B12C2E2D287159F40D
:1034B000F6012B2D30E2222319F031932150FBCF5E
:1034C000CB0CD11CB12CBB2331F0F60160839601EB
:1034D0002F5F3F4F6901A1110BC0F6012B2D30E387
:1034E000222319F031932150FBCFCB0CD11CB12CEE
:1034F000F80E0A81372F3071A32E74FF03C00133F9
:1035000009F4FA941F142CF42F2D293018F028E018
:1035100001C021E0682F392F97FF02C060E030E042
:10352000462F532F612C712C3EE2932EBC01621B5F
:1035300071099B01DC01A41BB50BE1E0F0E0EC0F8D
:10354000FD1FAE0FBF1FE12EF12CF194E194F108A5
:103550004F3FFFEF5F0731F4F6019082B6016F5FD6
:103560007F4F6B01841795074CF02417350734F40F
:10357000BD01660D771DFB01118101C010E34150B3
:103580005109FFEF6F1A7F0AB6016F5F7F4F4E152B
:103590005F0524F0F60110836B01DACF4817590755
:1035A00039F4063320F4053319F4A11001C011E3F6
:1035B000F6011083FB018B2D90E2882319F0919383
:1035C0008150FBCFFB01EB0DF11D108280E090E0FC
:1035D00029960FB6F894DEBF0FBECDBFDF91CF9115
:1035E0001F910F91FF90EF90DF90CF90BF90AF9021
:1035F0009F907F906F900895283008F027E0332740
:10360000DA01990F311D87FD916000966105710502
:1036100039F432602E5F3D9330E32A95E1F7089547
:103620009F3F30F080387105610509F03C5F3C5FD9
:103630003D93913008F08068911DDF93CF931F93E5
:103640000F93FF92EF92192F987F9695E92F9695F9
:103650009695E90FFF27E65DFE4F99273327EE2465
:10366000FF24A701E70105900894079428F4360F7A
:10367000E71EF81E491F511D660F771F881F991FEF
:103680000694A1F70590079428F4E70EF81E491F49
:10369000561FC11D770F881F991F661F0694A1F73B
:1036A0000590079428F4F80E491F561FC71FD11D17
:1036B000880F991F661F771F0694A1F7059007943E
:1036C00020F4490F561FC71FD81F990F661F771F79
:1036D000881F0694A9F784911095177041F0D6952C
:1036E000C79557954795F794E7941A95C1F7E0ED7C
:1036F000F0E068941590159135916591959105903C
:103700007FE27395E118F10A430B560BC90BD00900
:10371000C0F7E10CF11E431F561FC91FD01D7EF4D8
:10372000703311F48A95E6CFE894015030F0080F19
:103730000AF40027021708F4202F2395022F7A336A
:1037400028F079E37D932A95E9F710C07D932A95B7
:1037500089F6069497956795379517951794E1180C
:10376000F10A430B560BC90BD00998F023957E91B3
:1037700073957A3308F070E37C932013B8F77E9149
:1037800070617D9330F0839571E37D9370E32A95AA
:10379000E1F71124EF90FF900F911F91CF91DF91EE
:1037A000992787FD909508952F923F924F925F92AF
:1037B0006F927F928F929F92AF92BF92CF92DF9241
:1037C000EF92FF920F931F93CF93DF93CDB7DEB7A6
:1037D000CA1BDB0B0FB6F894DEBF0FBECDBF09943A
:1037E0002A88398848885F846E847D848C849B8491
:1037F000AA84B984C884DF80EE80FD800C811B819F
:10380000AA81B981CE0FD11D0FB6F894DEBF0FBECD
:10381000CDBFED01089511E0C0EDD1E004C0FE017F
:103820000E943B172296C23DD107C9F7F894FFCFFB
:1038300000002004800001000000290D290D2A2A23
:103840002A2A2A2A382C626564726F6F6D004661DD
:10385000696C656420746F20696E6974207472618C
:103860006E736D69742100523E003A003D0054525F
:10387000414E534D49543A200074656D7065726134
:10388000747572650068756D69646974790048754E
:103890006D69646974793A20002025090054656DCA
:1038A00070657261747572653A2000202A432000A9
:1038B0004661696C656420746F207265616420667E
:1038C000726F6D204448542073656E736F722100CF
:1038D00000000000C6028F148F148F148F14EC02A6
:1038E000FE0243030C03CB02CE02D102D402D70264
:1038F000C802DE02E102E402E702EA020000000080
:103900008F1489038A038F148F148B038F039303FF
:103910000500040400000000A303AA03AE03C203D1
:10392000B2038B038F0393030000000077083B076B
:103930001404A9051204EC02FE0243030C03CB029B
:10394000CE02D102D402D702C802DE02E102E402B2
:10395000E702EA020D0E131516191A1C2325262953
:103960002A2C323400000000B10F1D11330F4C0F10
:103970003E0F8F0F0D0A006E616E00696E66006F5C
:063980007666002E000037
:00000001FF
